:020000040800F2
:100000001060022475030008A729000823290008AE
:10001000A5290008010A00080146000800000000A8
:10002000000000000000000000000000B102000815
:10003000D90C0008000000000D030008A12D0008E5
:100040008F0300088F0300088F0300088F03000848
:100050008F0300088F0300088F0300088F03000838
:100060008F0300088F0300088F0300088F03000828
:100070008F0300088F0300088F0300088F03000818
:100080008F0300088F0300088F0300088F03000808
:100090008F0300088F0300088F0300088F030008F8
:1000A0008F0300088F0300088F0300088F030008E8
:1000B0008F0300088F0300088F0300088F030008D8
:1000C0008F0300088F0300088F0300088F030008C8
:1000D0008F0300088F0300088F0300088F030008B8
:1000E0008F0300088F030008000000008F03000842
:1000F0008F0300088F0300088F0300088F03000898
:100100008F030008F12B00088F0300088F030008FD
:100110008F0300088F0300088F0300088F03000877
:100120008F0300088F0300088F0300088F03000867
:100130008F0300088F0300088F0300088F03000857
:1001400000000000000000000000000000000000AF
:100150008F0300088F0300088F0300088F03000837
:100160008F0300088F0300088F0300088F03000827
:100170008F0300088F0300088F03000800000000B1
:100180008F0300088F0300088F0300088F03000807
:100190008F0300088F0300088F0300088F030008F7
:1001A0008F0300088F0300088F0300088F030008E7
:1001B0008F0300088F0300088F0300088F030008D7
:1001C0008F0300088F0300088F0300088F030008C7
:1001D0008F0300088F0300088F0300088F030008B7
:1001E0008F0300088F0300088F0300088F030008A7
:1001F0008F0300088F0300088F0300088F03000897
:100200008F0300088F0300088F0300088F03000886
:100210008F0300088F0300088F0300088F03000876
:100220008F0300088F0300088F0300080000000000
:100230008F0300088F030008000000008F030008F0
:100240008F0300088F0300088F0300088F03000846
:100250008F0300088F0300088F0300088F03000836
:100260008F0300088F0300088F0300088F03000826
:100270008F0300088F0300088F03000800000000B0
:100280008F0300088F0300088F03000800000000A0
:10029000000000008F030008DFF810D000F0E0FA43
:1002A00000480047EDA30008AFF30080106002246F
:1002B0002D4B19680868B0E8F04F80F30988BFF348
:1002C0006F8F4FF0000080F311887047000000002E
:1002D00008480068006880F308884FF0000080F349
:1002E000148862B661B6BFF34F8FBFF36F8F00DF24
:1002F00000BF00BF08ED00E0DFF80C00016841F42A
:1003000070010160704700BF88ED00E0EFF30980E5
:10031000BFF36F8F144B1A681EF0100F08BF20ED4B
:10032000108A20E9F04F106008B44FF0500072B608
:1003300080F31188BFF34F8FBFF36F8F62B60FF05A
:1003400097FE4FF0000080F3118808BC1968086818
:10035000B0E8F04F1EF0100F08BFB0EC108A80F329
:100360000988BFF36F8F704728000024EFF30580E2
:10037000704700000648804706480047FEE7FEE752
:10038000FEE7FEE7FEE7FEE7FEE7FEE7FEE7FEE745
:10039000592E0008990200082DE9F05F054600205B
:1003A00092469B4688460646814640241BE02846E6
:1003B00041464746224600F08BF853465A46C01A3B
:1003C000914110D311461846224600F072F82D1ABA
:1003D00067EB01084F4622460120002100F069F832
:1003E00017EB00094E41201EA4F10104DFDC484652
:1003F00031462A464346BDE8F09F10B5431A934262
:1004000009D28318881803E010F8011D03F8011DB4
:10041000521EF9D210BD40EA01039B0703D009E048
:1004200008C9121F08C0042AFAD203E011F8013BE0
:1004300000F8013B521EF9D210BDD2B201E000F823
:10044000012B491EFBD270470022F6E710B5134678
:100450000A4604461946FFF7F0FF204610BD421C2D
:1004600010F8011B0029FBD1801A704730B50446F3
:100470000020034600E05B1C934203D2E05CCD5CAD
:10048000401BF8D030BD30B50B460146002020227D
:10049000012409E021FA02F59D4205D303FA02F591
:1004A000491B04FA02F52844151EA2F10102F1DCF1
:1004B00030BD202A04DB203A00FA02F10020704708
:1004C0009140C2F1200320FA03F319439040704792
:1004D000202A04DB203A21FA02F00021704721FA99
:1004E00002F3D040C2F12002914008431946704700
:1004F0002DE9FE4F804681EA0300C00F0C460090B4
:1005000021F0004123F00045B8EB0200A94105D2DB
:100510004046214690461C460B46024623F00040CA
:10052000104347D0270DC7F30A00C3F30A510290C6
:10053000401A019040286BDAC3F3130040F4801B8B
:100540000098924620B10023D2EB030A63EB0B0B19
:1005500001985946C0F140025046FFF7AAFF0646EF
:100560000D4650465946019A00F08CF910EB0800F0
:100570006141002487EA115284EAE7731A4340D0AC
:10058000009A62B3019A012A4FEA075215DC001B58
:1005900061EB02014FF0004202EA0752CDE900424E
:1005A000001C41F5801132462B4600F08CF903B057
:1005B000BDE8F08F40462146F9E7001B61EB0201E0
:1005C000001C41F5801300185B412018A2F50017AC
:1005D00047EB030140EAD570B6196D4111E06D0893
:1005E0004FEA360645EAC0754FEA0752001B61EB39
:1005F0000201001C41F5801149084FEA3000001942
:10060000514132462B4603B0BDE8F04F00F04CB9E3
:100610000098012240000023D0EB020263EBE0735C
:10062000009821464FEAE074B8EB000061EB04014A
:10063000E9E783F000435BE781F0004158E72DE9EB
:10064000FE4F81EA030404F0004421F000410094CD
:100650004FF0000B23F0004350EA01045ED052EA51
:1006600003045BD0C3F30A54C1F30A552C44A4F22B
:10067000F3340194A0FB0254C1F3130141F480113F
:10068000C3F3130343F4801301FB024400FB034E46
:10069000840A970A44EA815447EA8357A4FB07680F
:1006A00002958D0A05FB07854FEA932C04FB0C5439
:1006B0002705029D4FEA065847EA1637B5EB0805AD
:1006C0006EEB070C870E920E47EA811742EA8312FF
:1006D000A7FB0201B6EB0B0164EB00042B0D43EA10
:1006E0000C335E1844EB1C50DA465146E7FB02011E
:1006F000C5F313044FEA0B3343EA14534FEA0432B1
:10070000019C43EA0603A4F10C040294009CCDE989
:1007100000B400F0D8F803B0BDE8F08F0020014627
:10072000F9E72DE9F04D81EA030404F0004B21F0D4
:10073000004514464FF0000A23F0004150EA05023C
:1007400020D054EA01021DD0C5F30A570246C5F372
:100750001303C1F31300C1F30A5640F4801543F4A8
:100760008013A7EB0608101BD64608F2FD3873EB82
:10077000050002D308F1010801E092185B41B8F1CD
:10078000000F03DA00200146BDE8F08D00204FF491
:100790008011064684460EE0171B73EB050705D350
:1007A000121B63EB050306434CEA010C49084FEAB0
:1007B000300092185B4150EA0107EDD152EA030084
:1007C00012D082EA040083EA0501084305D0101B19
:1007D000AB4106D20122002306E000224FF0004385
:1007E00002E06FF0010253101AEB06004CEB0851C7
:1007F00010EB0A0041EB0B01BDE8F04D00F054B8DE
:10080000C1F30A52C1F3130140F2FF3341F48011E6
:100810009A4202DA00200146704740F233439A427E
:10082000A2F2334202DC5242FFF752BEFFF741BE52
:1008300030B5041E71F1000404DB4FF00044404267
:1008400064EB0101141E73F1000405DB1C464FF03C
:100850000043524263EB0403994208BF904230BD0B
:10086000064C074D06E0E06840F0010394E80700FD
:1008700098471034AC42F6D3FFF712FDD842010876
:10088000F8420108202A06DBCB17203A41FA02F091
:1008900043EAE07306E041FA02F3D040C2F12002DD
:1008A000914008431946704710B5141E73F10004B7
:1008B00008DA401C41F1000192185B411A4301D152
:1008C00020F0010010BD2DE9F04D92469B4611B17C
:1008D000B1FA81F202E0B0FA80F220329046FFF7DE
:1008E000E8FD04460F4640EA0A0041EA0B01534680
:1008F0005A46084313D0114653EA010019D0C8F1F3
:1009000040025046FFF7E4FD05460E465046594664
:100910004246FFF7CEFD084305D0012004E0204603
:100920003946BDE8F08D0020054346EAE0762C43C9
:1009300037430A986305E40AA0EB08000022FD0A89
:1009400044EA47540A3002D500200146E9E7010590
:1009500010196941DDE9084500196941BDE8F04D0C
:10096000A2E770B58C1810F8015B15F0070301D1F0
:1009700010F8013B2A1106D110F8012B03E010F802
:10098000016B01F8016B5B1EF9D12B0705D4002325
:10099000521E0DD401F8013BFAE710F8013BCB1AC7
:1009A000921C03E013F8015B01F8015B521EF9D5BC
:1009B000A142D8D3002070BD10B502F0FBF90AF0B7
:1009C00043FD01F059FB4FF47A71B0FBF1F001F0F7
:1009D000F7FE00F01FF904A003F014FEBDE810407C
:1009E0004FF4967000F07AB95B626F6F745D2062AD
:1009F000737020696E697420646F6E650D0A000063
:100A0000FEE7000030B593B031A003F00DFE0020EA
:100A10000FF0D8FC44F6436010F0CAFC01460229EE
:100A200009D011B132A003F0FFFD39A003F0FCFDA5
:100A30003D4D002406E03DA003F0F6FDFEE741A099
:100A400003F0F2FD4E480D2349A22946009401947B
:100A500011F050FC0028F2D14AA003F0E5FD524805
:100A6000046008380460001D046051494E4B4F4833
:100A70001A1F0290CDE900414E48111F0AF02CF8D0
:100A800080B14C480AF09CF84A480AF0DAF84AA0CB
:100A900003F0CAFD474803A905F0D2FA454805F01E
:100AA000D8FA07E04CA003F0BFFD13B030BD0A2018
:100AB0000BF024FD9DF815000A28F8D13D48001DD3
:100AC00007F014FE01464DA003F0AEFDEDE7000077
:100AD0005374617274696E67205769636564207628
:100AE0003030362E3030322E3030310A00000000E7
:100AF0004572726F72202564207768696C65207377
:100B000074617274696E67205749434544210A0035
:100B10004A6F696E696E67203A205265646D695F3D
:100B2000354344330A00000006004000E68993E59F
:100B3000BC8077696669E8B685E697B6202D3E3EAB
:100B4000256400004661696C656420746F206A6FDB
:100B5000696E20203A205265646D695F35434433E5
:100B60002020202E2E207265747279696E670A002B
:100B70006D6F757365736F7374726F6E67000000CD
:100B8000183801085375636365737366756C6C7907
:100B9000206A6F696E6564203A205265646D695FF2
:100BA000354344330A00000024000024956D0008FA
:100BB000856E00083C0300244F627461696E696EA3
:100BC000672049502061646472657373207669619F
:100BD00020444843500A00004661696C65642074F3
:100BE0006F207374617274206E6574776F726B20FE
:100BF000696E746572666163650A00004E6574779C
:100C00006F726B2072656164792049503A202573B8
:100C10000A00000070B5B6B02B48016841F0010130
:100C20000160016801F001010191016841F00101D9
:100C30000160006800F00100019001240294002589
:100C4000209502A800F01EFC1F481030016841F0FA
:100C500010010160006800F0100001906002319006
:100C600002203290339434900724359431A9174EE2
:100C7000304600F045F84FF480613191359431A948
:100C8000304600F03DF8134C114820604FF4E1303D
:100C90006060A560E56025610C206061A561E5618B
:100CA0002562A562204601F09FFD00222520114605
:100CB00000F0A6F9252000F095F92068016841F0C0
:100CC0002001016036B070BDE044025800000258B7
:100CD00000100140B00200247047000070B50446C7
:100CE00000F014F90546601C02D004480078044462
:100CF00000F00CF9401BA042FAD370BD080000249C
:100D00002DE9F84F00226E4C4FF0B0494FF0010A28
:100D10004FF0030E4FF00F08CAE00AFA02F73B400B
:100D2000002B70D04D68022D01D0122D12D1D508A4
:100D300000EB850CDCF820605507ED0E08FA05FB8A
:100D400026EA0B06D1F810B00BFA05FB4BEA060BAE
:100D5000CCF820B0D0F800C055000EFA05F62CEA09
:100D6000060C91F804B00BF0030B0BFA05FB4BEAF1
:100D70000C0BC0F800B0D1F804C0BCF1010F08D0D2
:100D8000BCF1020F05D0BCF1110F02D0BCF1120F63
:100D900016D1D0F808C02CEA060CD1F80CB00BFA2A
:100DA00005FB4BEA0C0BC0F808B0D0F804C02CEAE5
:100DB000070C0F79C7F30017974047EA0C07476005
:100DC000C768B7438E68AE403E43C6604D68ED00CD
:100DD0006DD53C4D2E6846F002062E602D6805F05C
:100DE0000205009522F0030606F1B046D6F808C4C5
:100DF00095072F0F08FA07F52CEA050C324DA8428B
:100E000002D100252EE052E0304DA84201D101254B
:100E100028E02F4DA84201D1022523E02D4DA84204
:100E200001D103251EE02C4DA84201D1042519E073
:100E30002A4DA84201D1052514E0294DA84201D12F
:100E400006250FE0274DA84201D107250AE0264DCF
:100E5000A84201D1082505E0244DA84201D1092569
:100E600000E00A25BD4045EA0C05C6F8085425688F
:100E70009D434E68F60300D51D43256065689D437C
:100E80004E68B60300D51D436560D9F800509D43F8
:100E90004E68F60200D51D43C9F80050D9F8045039
:100EA0009D434E68B60200D51D43C9F80450521C3C
:100EB0000B6833FA02F57FF430AFBDE8F88F00001D
:100EC00080000058F4440258000002580004025800
:100ED00000080258000C0258001002580014025872
:100EE00000180258001C0258002002580024025822
:100EF000002A01D0816170470904816170470000B8
:100F000001480068000C70470010005C044840680D
:100F10000449B0FBF1F04FF47A7148437047000088
:100F2000001000E000389C1C0648016841F0807108
:100F30000160054800214160016841F00101016044
:100F400000207047FCED00E0001000E0144A4178FA
:100F50001160111D03780A1D002B1CD043680B6023
:100F6000017BC37A090741EA0361837A41EAC341FD
:100F7000437B41EA8341837B41EA4341C37B41EAAE
:100F80000341437A41EA0321037A007841EA4301AD
:100F90000143116070470020086010607047000036
:100FA00098ED00E0BFF35F8F0448016821F48031C1
:100FB00001600249002070310860704724ED00E0B4
:100FC000074940F00100086005487038016841F4A5
:100FD00080310160BFF34F8FBFF36F8F7047000008
:100FE00094ED00E0002809DB012100F01F02914090
:100FF0004009800000F1E020C0F8001170470000B7
:10100000F0B40D460D4B1B68C3F30223C3F1070474
:10101000042C00D90424191D072901D2002300E063
:10102000DB1E012606FA04F1491E294099409E4024
:10103000761E16403143F0BC03F006BB0CED00E019
:1010400000F00701054A10684FF6FF03184040EA18
:101050000120034908431060704700000CED00E0D8
:101060000000FA0570B512490A68520706D40A68EA
:1010700002F00702824201D0012070BD0A6822F00E
:10108000070202430A60FFF741FF0446084D4FF490
:101090007A76083D06E0FFF739FF001BB04201D920
:1010A000032070BD28688004F5D5002070BD0000C5
:1010B0000C48025810B500F0DFFF06490968064ADF
:1010C000C1F30321515C01F01F01C84003490860CE
:1010D00010BD000018440258083801080000002420
:1010E00010B500F08FFF05490968054AC1F30211E8
:1010F000515C01F01F01C84010BD0000204402589F
:101100000838010810B569490A6802F00302096845
:10111000C1F30531654B1B1D1B6803F01003634CC5
:1011200014342468C4F3CC0414FB03F300EE103A27
:10113000B8EE400A002971D09FED5D1A5B4BF7EEC7
:10114000000A1033F2B39FED5B2A012A7FD0022AF6
:101150007CD001EE901A1968F8EE611AC2EE212ACD
:10116000C1F3080101EE901AF8EE611A40EE011A7F
:1011700031EEA00A22EE800A1968C1F3462101EE81
:10118000101AB8EE411A31EE201AC0EE011ABCEE68
:10119000E11A80ED001A1968C1F3064101EE101A38
:1011A000B8EE411A31EE201AC0EE011ABCEEE11A77
:1011B00080ED011A1968C1F3066101EE101AB8EE4C
:1011C000411A00E008E071EE200A80EE201ABCEE21
:1011D000C10A80ED020A10BD344A283A1468A406F8
:1011E0001ED51268C2F3C104334AE24001EE902AD0
:1011F000F8EE612A01EE901A1968F8EE611A82EE93
:10120000A12AC1F3080101EE901AF8EE611A40EE2E
:10121000011A31EEA00A22EE000AADE741E016E025
:1012200001EE901ADFED252A1968F8EE611A82EEB8
:10123000A12AC1F3080101EE901AF8EE611A40EEFE
:10124000011A31EEA00A22EE000A95E713E001EE42
:10125000901A1968F8EE611AC2EE212AC1F308014A
:1012600001EE901AF8EE611A40EE011A31EEA00A72
:1012700022EE800A80E701EE901ADFED112A19684C
:10128000F8EE611A82EEA12AC1F3080101EE901A6C
:10129000F8EE611A40EE011A31EEA00A22EE000AC1
:1012A0006AE7002101604160816010BD2844025856
:1012B000000000390024744A0090D0030024744CCC
:1012C00020BCBE4B10B569490A6802F003020968E8
:1012D000C1F30551654B1B1D1B6803F48073634C00
:1012E0001C342468C4F3CC0414FB03F300EE103A5E
:1012F000B8EE400A002971D09FED5D1A5B4BF7EE06
:10130000000A1833F2B39FED5B2A012A7FD0022A2C
:101310007CD001EE901A1968F8EE611AC2EE212A0B
:10132000C1F3080101EE901AF8EE611A40EE011ABD
:1013300031EEA00A22EE800A1968C1F3462101EEBF
:10134000101AB8EE411A31EE201AC0EE011ABCEEA6
:10135000E11A80ED001A1968C1F3064101EE101A76
:10136000B8EE411A31EE201AC0EE011ABCEEE11AB5
:1013700080ED011A1968C1F3066101EE101AB8EE8A
:10138000411A00E008E071EE200A80EE201ABCEE5F
:10139000C10A80ED020A10BD344A283A1468A40636
:1013A0001ED51268C2F3C104334AE24001EE902A0E
:1013B000F8EE612A01EE901A1968F8EE611A82EED1
:1013C000A12AC1F3080101EE901AF8EE611A40EE6D
:1013D000011A31EEA00A22EE000AADE741E016E064
:1013E00001EE901ADFED252A1968F8EE611A82EEF7
:1013F000A12AC1F3080101EE901AF8EE611A40EE3D
:10140000011A31EEA00A22EE000A95E713E001EE80
:10141000901A1968F8EE611AC2EE212AC1F3080188
:1014200001EE901AF8EE611A40EE011A31EEA00AB0
:1014300022EE800A80E701EE901ADFED112A19688A
:10144000F8EE611A82EEA12AC1F3080101EE901AAA
:10145000F8EE611A40EE011A31EEA00A22EE000AFF
:101460006AE7002101604160816010BD2844025894
:10147000000000390024744A0090D0030024744C0A
:1014800020BCBE4B2DE9F84F044600250026FB4F3B
:101490002068DFF8EC83010104F1240000900DD5F1
:1014A000606EB0B1B0F5801F18D0B0F5001F1BD032
:1014B000B0F5401F00D00125E5B12E462088C005BB
:1014C00035D5606D05282FD2DFE800F01D22282FCA
:1014D0002F00386840F400303860EDE70221201D0D
:1014E00001F062FA0546E7E70098022101F0EEFA02
:1014F0000546E1E7D8F80000616E20F4401008438B
:10150000C8F80000DAE7386840F4003038600CE0D2
:101510000021201D01F048FA054606E00098002150
:1015200001F0D4FA054600E001255DB12E46208881
:10153000800518D5A06D802830D00CDC18B3402869
:101540000ED125E0D8F80000616D20F007000843B7
:10155000C8F80000EBE7C02803D0B0F5807F00D0CA
:1015600001250DB32E462088DFF8189340052DD5B0
:10157000D4F8A400B0F5800F42D01EDCA0B3B0F5C3
:10158000001F20D136E0386840F400303860E8E7CA
:101590000021201D01F008FA0546E2E7009800212D
:1015A00001F094FA0546DCE7D8F80000A16D20F4BC
:1015B000E0700843C8F80000D5E7B0F5C00F03D0CD
:1015C000B0F5000F00D0012505B32E462088000598
:1015D0002FD5D4F8A800B0F1007F52D020DCE8B3BA
:1015E000B0F1807F22D146E0FFE7386840F4003058
:1015F0003860E9E70021201D01F0D6F90546E3E750
:101600000098002101F062FA0546DDE7D9F80000F4
:10161000D4F8A41020F460000843C9F80000D5E70E
:10162000B0F1407F03D0B0F1806F00D0012575B3D9
:101630002E46206880010AD5A06C30B1102831D028
:10164000202835D0302800D0012585B32E462088AB
:10165000C00446D5E06DB0F5005F00E006E05BD069
:1016600036DCA0B3B0F5805F38D14FE0386840F485
:1016700000303860DBE70021201D01F095F90546B8
:10168000D5E70098002101F021FA0546CFE7FFE7F2
:10169000D9F80000D4F8A81020F0E0600843C9F899
:1016A0000000C6E7386840F400303860CDE705E058
:1016B0000221201D01F078F90546C6E77048001F99
:1016C0000168A26C21F0300111430160BFE718E00E
:1016D000B0F5405F03D0B0F5804F00D001250DB3C9
:1016E0002E46208880042FD5206EB0F5403F29D0AB
:1016F00021DC38B3B0F5803F37D0B0F5003F20D1C2
:1017000039E0386840F400303860E8E70021201DF7
:1017100001F04AF90546E2E70098002101F0D6F908
:101720000546DCE7D8F80000E16D20F4E04008430E
:10173000C8F80000D5E7B0F5802F03D0B0F5A02F92
:1017400000D00125EDB12E46208840042BD5D4F8D9
:10175000AC00B0F1405F24D01CDC10B3B0F1805F6E
:101760004BD0B0F1005F1BD14EE00121201D01F0F4
:101770001BF90546E6E70098012101F0A7F90546A7
:10178000E0E7D8F80000216E20F4E0200843C8F814
:101790000000D9E7B0F1804F03D0B0F1A04F00D0E6
:1017A000012585B32E46208800040AD5E06E30B1AD
:1017B000B0F1805F39D0B0F1005F3BD001259DB31F
:1017C0002E462068C0010AD5606C30B1012841D096
:1017D000022844D0032800D001258DB32E4620686E
:1017E000DFF8A4B0400261D52848016841F4807157
:1017F0000160FFF78BFB824652E00121201D01F0C2
:10180000D3F80546CDE705E00098012101F05EF927
:101810000546C6E7D9F80000D4F8AC1020F0E04047
:101820000843C9F80000BEE70BE0386840F4003018
:101830003860C4E70121201D01F0B6F80546BEE777
:1018400013E0D8F80000E16E20F040500843C8F8DB
:101850000000B6E7386840F400303860BDE7022188
:10186000201D01F0A1F80546B7E70548001F0168F3
:10187000626C21F0030111430160B0E72C4402586F
:101880005044025858440258104402580048025824
:10189000FFF73CFBA0EB0A00642801D9032503E015
:1018A000FE480068C005F3D57DB12E462078DFF8EC
:1018B000F0A3C00766D0A06F182861D05BDC80B3AE
:1018C00008286AD010285AD16DE0F5481C3000680D
:1018D00000F44071B4F8B00000F4407081420DD0C3
:1018E000EF481C30016821F44071026842F48032F4
:1018F0000260026822F4803202600160D4F8B00015
:10190000B0F5807F13D1FFF701FB82460AE0FFF7B5
:10191000FDFAA0EB0A0141F28830814202D9032589
:1019200005E02DE0DE481C3000688007EFD50DB1E2
:101930002E46BBE7D4F8B000C0F3012103290FD035
:10194000DBF8000020F47C50CBF80000D4481C30B9
:101950000168B4F8B020C2F30B0211430160A5E79F
:10196000DBF80010CF4A21F47C51104041EA1010FE
:10197000CBF80000EAE7202802D0282800D0012573
:10198000BDB12E46207880072BD5606F062825D262
:10199000DFE800F025181E2525250121201D01F076
:1019A00003F80546ECE70098012101F08FF80546A1
:1019B000E6E7DAF80000A16F20F038000843CAF823
:1019C0000000DFE70121201D00F0EEFF054606E0E4
:1019D0000098012101F07AF8054600E0012565B183
:1019E0002E462078400720D5D4F89000062819D23A
:1019F000DFE800F0190C12191919DAF80000616F0C
:101A000020F007000843CAF80000EAE70121201D82
:101A100000F0CAFF054606E00098012101F056F8E3
:101A2000054600E001258DB12E462078800620D5A0
:101A3000D4F88C00B0F1405F19D011DCB8B1B0F12E
:101A4000805F27D0B0F1005F10D129E0D9F8000005
:101A5000D4F8901020F007000843C9F80000E4E72C
:101A6000B0F1804F03D0B0F1A04F00D00125EDB10F
:101A70002E46207840062CD5D4F89800B0F5406F5B
:101A800025D01DDC18B3B0F5806F33D0B0F5006FF2
:101A90001CD135E00021201D00F086FF0546E6E759
:101AA0000098022101F012F80546E0E7DAF800009C
:101AB000D4F88C1020F0E0400843CAF80000D8E7C2
:101AC000B0F5805F03D0B0F5A05F00D00125EDB187
:101AD0002E46207800062CD5D4F89C00B0F5C04FD7
:101AE00025D01DDC18B3B0F5005F7CD0B0F5804F79
:101AF0001CD1E0E00021201D00F056FF0546E6E77E
:101B00000098022100F0E2FF0546E0E7D9F8000066
:101B1000D4F8981020F4E0500843C9F80000D8E742
:101B2000B0F5004F03D0B0F5204F00D00125EDB344
:101B30002E46207800070BD5D4F88000B0F5805FE2
:101B400075D0DAF8001021F440510143CAF80010B2
:101B50002078C0060BD5D4F89400B0F5807F68D00B
:101B6000D9F8001021F440710143C9F80010206831
:101B700000030BD5D4F8A000B0B3B0F5803F7DD002
:101B8000B0F5003F00D001257DB32E46206840030C
:101B90000FD5D4F88400B0F5801F71D0B0F5001FC8
:101BA0006FD0B0F5401F00D0012500E089E0E5B31B
:101BB0002E462068C00307D5E06CB8B3B0F5803F6F
:101BC00072D00125A5B32E462068800005D5009867
:101BD000022100F07BFF00B101262068800311D5AF
:101BE000E06F68B102E060E089E094E0B0F5807FEA
:101BF00071D0B0F5007F03D0B0F5407F00D0012553
:101C0000EDB32E462068C00207D5D8F80000216F3A
:101C100020F000400843C8F800002068C0000ED53E
:101C2000DBF8000020F4804004E089E092E053E01B
:101C30009BE05AE0D4F8B4100843CBF800002068C9
:101C4000800207D5D8F80000A16E20F0807008430C
:101C5000C8F80000206840000CD5DBF8000020F434
:101C60000040CBF80000DBF80000D4F8B8100843BF
:101C7000CBF80000206800280CDA03E045E081E0A2
:101C800053E057E0064808380168226D21F04051C2
:101C90001143016096B30120BDE8F88F0048025857
:101CA00054440258FFFCFF0F59E00021201D00F0B2
:101CB0007BFE05463BE70098022100F007FF054642
:101CC00035E7D9F80000D4F89C1020F460400843B0
:101CD000C9F800002DE750E00098022100F0F6FE60
:101CE00000283FF435AF012632E70098022100F0CA
:101CF000EDFE00283FF43BAF012638E74BE0002122
:101D0000201D00F051FE05463EE70098022100F03C
:101D1000DDFE054638E7D9F80000D4F8A01020F41D
:101D200040300843C9F8000030E7386840F400301C
:101D300038603AE70098012100F0C8FE054634E714
:101D4000DAF80000D4F8841020F440100843CAF8F0
:101D500000002EE7386840F40030386032E7022196
:101D6000201D00F021FE05462CE70C480168E26CBE
:101D700021F480311143016026E7386840F40030D7
:101D800038603DE7DAF80000E16F20F44070084366
:101D9000CAF8000036E700207EE700004C440258F5
:101DA0002DE9F05F04460D46002C17D0DFF838828D
:101DB000D8F8000000F00F00A84211D2D8F80000B7
:101DC00020F00F002843C8F80000D8F8000000F009
:101DD0000F00A84204D00120BDE8F09F0120FBE7DE
:101DE0002078824E40070AD52069316801F07001E1
:101DF000884204D9316821F07001014331602078B4
:101E00007B4F00070AD56069396801F0700188428C
:101E100004D9396821F07001014339602078C00687
:101E20000AD5A069396801F4E061884204D93968AB
:101E300021F4E061014339602078DFF8B891800631
:101E40000DD5E069D9F8001001F07001884206D97B
:101E5000D9F8001021F070010143C9F80010207872
:101E600080070AD5E068316801F00F01884204D983
:101E7000316821F00F01014331602078C00743D061
:101E80003068A16820F4706008433060574960688A
:101E90001839022808D003280BD001280ED0096871
:101EA000490710D4012097E7096889030BD4012062
:101EB00092E70968890106D401208DE70968C90500
:101EC00001D4012088E7DFF824A1AAF1080ADAF892
:101ED000001021F007010143CAF80010FFF716F8BF
:101EE000834609E0FFF712F8A0EB0B0141F28830BE
:101EF000814201D903206FE7DAF80000616800F041
:101F00003800B0EBC10FEDD1207880070AD5E0682A
:101F1000316801F00F01884204D2316821F00F01CD
:101F200001433160D8F8000000F00F00A8420ED93C
:101F3000D8F8000020F00F002843C8F80000D8F8B7
:101F4000000000F00F00A84201D0012044E72078F3
:101F500040070AD52069316801F07001884204D237
:101F6000316821F0700101433160207800070AD503
:101F70006069396801F07001884204D2396821F043
:101F80007001014339602078C0060AD5A06939681C
:101F900001F4E061884204D2396821F4E061014330
:101FA0003960207880060DD5E069D9F8001001F07D
:101FB0007001884206D2D9F8001021F07001014367
:101FC000C9F8001000F058F831680B4AC1F303213A
:101FD000515C01F01F01C8400849086008480068CA
:101FE000BDE8F05FFEF7A0BF002000521844025881
:101FF0001C440258204402580838010800000024FC
:102000000C00002410B5FFF755F806490968064A88
:1020100001F00F01515C01F01F01C8400349086045
:1020200010BD0000184402580838010804000024BC
:1020300010B5FFF7E7FF05490968054AC1F302112A
:10204000515C01F01F01C84010BD00001C44025843
:102050000838010810B5FFF7D5FF05490968054A9A
:10206000C1F30221515C01F01F01C84010BD000006
:102070001C4402580838010830B564480068654CB3
:1020800010F03801624808D0021108290DD010293B
:102090000DD018290DD0104630BD21688906FBD51A
:1020A0002168C1F3C101C84030BD104630BD5A4857
:1020B00030BD564918310A6802F003020968C1F3BD
:1020C0000511524B1C331B6803F001034F4D24359F
:1020D0002D68C5F3CC0515FB03F300EE103AB8EEFE
:1020E000400A002977D0DFED4D0A484BB7EE001AC1
:1020F00020333AB39FED4A2A012A58D0022A6CD0E5
:1021000001EE901A1868F8EE611AC2EE212AC0F3A7
:10211000080001EE900AF8EE611A40EE201A31EE46
:10212000810A22EE800A1868C0F34620401C00EEA7
:10213000900AF8EE600A80EE201ABCEEC10A10EE9A
:10214000100A30BD226892061BD52268C2F3C10274
:10215000D04001EE900A1868F8EE612A01EE901A5C
:10216000F8EE611A82EEA12AC0F3080001EE900A8F
:10217000F8EE611A40EE201A31EE810A22EE000AD2
:10218000D1E701EE901ADFED272A1868F8EE611A00
:1021900082EEA12AC0F3080001EE900AF8EE611A5F
:1021A00040EE201A31EE810A22EE000ABBE701EE72
:1021B000901A1868F8EE611AC2EE212AC0F30800DE
:1021C00001EE900AF8EE611A40EE201A31EE810A13
:1021D00022EE800AA7E716E0FFE701EE901ADFED96
:1021E000122A1868F8EE611A82EEA12AC0F30800DC
:1021F00001EE900AF8EE611A40EE201A31EE810AE3
:1022000022EE000A8FE7002030BD00001044025883
:102210000090D0030044025840787D01000000394E
:102220000024744A0024744C20BCBE4B2DE9F05F9E
:102230000446002C10D02078DFF8EC83FB4FFC4DD7
:10224000C0075DD0D8F8000000F0380039681028C9
:102250001FD0182803D006E00120BDE8F09F01F050
:102260000300022815D06068B0F5803F18D0E0B1B7
:10227000B0F5A02F22D0286820F48030286028688C
:1022800020F480202860606860B3FEF73FFE0646B9
:1022900024E02868800333D5606810BB0120DCE7A8
:1022A000286840F480302860EDE7286820F480300A
:1022B0002860286820F480202860E4E7286840F43B
:1022C00080202860286840F480302860DBE7FEF733
:1022D0001DFE801B642801D90320BEE72868800307
:1022E000F5D50DE0FEF712FE064606E0FEF70EFEFF
:1022F000801B642801D90320AFE728688003F5D448
:10230000207841F2030ACB4E800777D5D8F8000039
:1023100000F03800396870B1182801D188070AD058
:10232000E06880B3296821F0190101432960FEF7B4
:10233000EDFD814638E02868400701D5E06848B1E6
:102340002868E16820F0190008432860FEF7DEFDE8
:10235000814609E0012080E7FEF7D8FDA0EB0900E7
:10236000022801D9032078E728684007F4D5FEF752
:10237000C7FD504508D83068216920F47C3040EA18
:10238000013030603AE026E03068217C20F0FE40E9
:1023900040EA0160306031E0FEF7B8FDA0EB0900D3
:1023A000022801D9032058E728684007F4D5FEF732
:1023B000A7FD504507D83068216920F47C3040EAF9
:1023C000013030601AE03068217C20F0FE4040EAA5
:1023D0000160306012E0286820F001002860FEF7FC
:1023E00095FD814607E0FEF791FDA0EB090002286C
:1023F00001D9032031E728684007F4D42078C006CB
:1024000070D5D8F8000000F038003968DFF818B24D
:102410000828ABF1040B0FD0182803D101F00300FA
:10242000012809D0E06978B3286840F0800028606E
:10243000FEF76CFD814628E02868C00504D5E069F8
:10244000802801D0012008E7FEF75AFD504508D842
:10245000306894F8201020F0F84040EA8160306045
:1024600040E0DBF8000094F8201020F07C5040EAB7
:102470000160CBF8000035E0FEF748FDA0EB090055
:10248000022802D90320E8E61AE02868C005F3D53F
:10249000FEF736FD504508D8306894F8201020F03B
:1024A000F84040EA816030601CE0DBF8000094F8FE
:1024B000201020F07C5040EA0160CBF8000011E0D1
:1024C000286820F080002860FEF720FD064606E020
:1024D000FEF71CFD801B022801D90320BDE62868F9
:1024E000C005F5D4207800072AD5504E60694C36D7
:1024F00098B1306840F001003060FEF707FD81467A
:1025000007E0FEF703FDA0EB0900022801D9032034
:10251000A3E630688007F4D512E0306820F00100AF
:102520003060FEF7F3FC814607E0FEF7EFFCA0EB1E
:102530000900022801D903208FE630688007F4D40F
:102540002078800626D5A06990B1286840F4805094
:102550002860FEF7DBFC064606E0FEF7D7FC801B92
:10256000022801D9032078E628688004F5D511E017
:10257000286820F480502860FEF7C8FC064606E074
:10258000FEF7C4FC801B022801D9032065E62868F9
:102590008004F5D42078400778D5274E306840F481
:1025A00080703060FEF7B2FC814607E0FEF7AEFCBB
:1025B000A0EB0900642801D903204EE63068C0056D
:1025C000F4D5DFF86890A06809F14809012816D011
:1025D000E0B1052832D0D9F8000020F00100C9F898
:1025E0000000D9F8000020F00400C9F80000A0683D
:1025F00041F2883AB8B1FEF789FC064632E0D9F8D4
:10260000000040F00100C9F80000F0E7D9F8000030
:1026100020F00100C9F80000D9F8000020F0040003
:10262000C9F80000E3E722E01044025828440258A9
:10263000004402580444025800480258D9F80000E7
:1026400040F00400C9F80000D9F8000040F0010093
:10265000C9F80000CBE7FEF759FC801B504501D9B3
:102660000320FAE5D9F800008007F4D50EE0FEF764
:102670004DFC064606E0FEF749FC801B504501D99B
:102680000320EAE5D9F800008007F4D4606AE8B3D3
:10269000D8F80010C1F3C201032975D0022807D071
:1026A000286820F080702860FEF730FC04467EE049
:1026B000286820F080702860FEF728FC064606E0B7
:1026C000FEF724FC801B022801D90320C5E52868F9
:1026D0008001F5D4386840F2F3318843E16A40EA7A
:1026E0000110A16A08433860208E4FF6FF72616BBB
:1026F000401E491EC0F3080002EA41210843218F11
:102700004FF4FE02491E02EA014100E052E0084394
:1027100094F83C10491E120202EA0161084327495D
:102720000860081F016821F0010101602349091DAB
:102730000A684FF6F8739A43A36C42EAC3020A6030
:102740000168226C21F00C01114301600168626C88
:1027500021F0020111430160016841F48031016000
:10276000016841F400310160016841F48021016099
:10277000016841F001010160286840F08070286024
:10278000FEF7C4FB044607E016E0FEF7BFFB001BA4
:10279000022801D9032060E528688001F5D509E009
:1027A000FEF7B4FB001B022801D9032055E5286879
:1027B0008001F5D4002050E501204EE53044025858
:1027C00010B5401EB0F1807F01D3012010BD4FF045
:1027D000E02460610F21601701F036FF0020A06146
:1027E00007202061002010BD10B50446002C03D046
:1027F000D4F8800010B107E0012010BD002084F85B
:102800007C00204600F028F82420C4F880002068CE
:10281000016821F001010160204600F0FDFB012864
:1028200018D0A06A10B1204600F062FB2068416811
:1028300021F4904141602068816821F02A01816083
:102840002068016841F0010101602046BDE81040A8
:1028500000F0B2BB012010BD70472DE9F8430446DB
:102860000E4615461F46D4F88000202802D00220CC
:10287000BDE8F883D6B1CDB194F87C00012817D01B
:10288000012084F87C004FF00008C4F888802120E3
:10289000C4F88000FEF73AFB8146A4F85450A4F82F
:1028A0005650A068B0F5805F04D005E00120DFE756
:1028B0000220DDE7206910B13546002615E000252D
:1028C00013E000224B4680212046009701F044FE91
:1028D00008B10320CCE7B5B1216815F8010B886277
:1028E000B4F85600401EA4F85600B4F8560000286C
:1028F000E7D100224B4640212046009701F02CFEF4
:1029000040B10320B4E7216836F8020BC0F3080099
:102910008862E5E72020C4F8800084F87C800020ED
:10292000A6E7FEE77FB5FEF73DFB01258DF80050D9
:102930004FF01050019012208DF8080003268DF8FA
:102940000B6000248DF80F408DF80E508DF80D505F
:102950008DF801408DF80A408DF809408DF80C4043
:102960006846FEF7F3FA8DF800504FF06050019082
:102970000F208DF808008DF80B608DF80F408DF852
:102980000E508DF80D508DF801508DF80A408DF8DD
:1029900009408DF80C406846FEF7D8FA0420FEF78F
:1029A0000FFB7FBDFEE770472DE9F04704468846E0
:1029B0000027DFF81491D9F80000C043800709D040
:1029C000414D283D286820F080602860FEF79EFA7F
:1029D000064609E00120BDE8F087FEF797FA801B64
:1029E000022801D90320F6E728680001F5D4D9F8B8
:1029F0000000216820F47C3040EA0130C9F8000072
:102A0000A0884FF6FF72A168401E491EC0F308005F
:102A100002EA41210843A1894FF4FE02491E02EA5D
:102A200001410843217C1202491E02EA0161084368
:102A30002549103108602448001D0168626921F0B1
:102A4000C001114301600168A26921F02001114316
:102A50000160016821F0100101601B4914310A680E
:102A60004FF6F8739A43E36942EAC3020A600168C9
:102A700041F010010160B8F1000F0ED0B8F1010F64
:102A800010D0016841F400110160286840F08060B6
:102A90002860FEF73BFA044610E0016841F400218B
:102AA0000160F2E7016841F480110160EDE7FEF793
:102AB0002DFA001B022801D903208CE728680001A9
:102AC000F5D5384687E70000284402582DE9F0473D
:102AD000044688460027DFF81491D9F80000C04367
:102AE000800709D0414D283D286820F0805028609B
:102AF000FEF70CFA064609E00120BDE8F087FEF774
:102B000005FA801B022801D90320F6E72868800017
:102B1000F5D4D9F80000218820F07C7040EA0150FB
:102B2000C9F80000A0884FF6FF72A168401E491E38
:102B3000C0F3080002EA41210843A1894FF4FE02D4
:102B4000491E02EA01410843217C1202491E02EAA1
:102B5000016108432549183108602448001D0168B7
:102B6000626921F44061114301600168A26921F4A6
:102B7000007111430160016821F4807101601B49FB
:102B80001C310A684FF6F8739A43E36942EAC302BC
:102B90000A60016841F480710160B8F1000F0ED045
:102BA000B8F1010F10D0016841F080710160286810
:102BB00040F080502860FEF7A9F9044610E0016853
:102BC00041F480010160F2E7016841F40001016015
:102BD000EDE7FEF79BF9001B022801D903208CE7E3
:102BE00028688000F5D5384687E700002844025859
:102BF00070B51F4D6C6B4FF001001E4914F0330F80
:102C000009D00870801EA86301211A48BDE87040F1
:102C1000143004F09BBD14F0C00F0AD06A6912058D
:102C200005D5087001211348143004F08FFDC02031
:102C3000A863E0050ED54FF48070A8630020A86259
:102C40004FF40061E9622865E86001210948143009
:102C500004F07CFD60020AD54FF48000A863E86BA5
:102C600020F48000E863BDE870400FF053B970BDF8
:102C7000007000528C0200240FB4DDE901121143F0
:102C8000DDE903231A431143059A11434268034BBC
:102C90001A400A434260002004B07047002CC0FF75
:102CA000016821F00301016000207047016841F0D4
:102CB0000301016000207047C26A22F480620A4367
:102CC000C2620020704700002DE9F04786B031480D
:102CD000016841F480310160006800F480300090A8
:102CE0002C4C0C34206840F004002060206800F078
:102CF00004000090206840F008002060206800F088
:102D0000080000904FF4F8500190022502954FF012
:102D10000008CDF80C804FF00309CDF810904FF06B
:102D20000C0ACDF814A01C4E01A93046FDF7E8FFAF
:102D3000042701970295CDF80C80CDF81090CDF8BE
:102D400014A001A91548FDF7DBFF206840F004003E
:102D50002060206800F0040000900197012102919A
:102D60000391049501A93046FDF7CAFF00223046C1
:102D70000421FEF7BDF800214FF6FF7200BF491C89
:102D80009142FBDB012230460421FEF7B1F806B088
:102D9000BDE8F087D444025800080258000C0258DD
:102DA00010B510F0A1FB012803D0BDE810400FF0D2
:102DB000C7BF10BD30B59DB04C210AA8FDF744FB3C
:102DC000202102A8FDF740FB0220FEF74BF900246A
:102DD0001F48016841F44041016001681D490A68CB
:102DE00042F001020A60096801F0010101910168E5
:102DF0008904FCD501200A9000040B900220139056
:102E0000149005211591C021169117900421189155
:102E1000199008251A951B941C940AA8FFF706FA26
:102E200000B1FEE73F200290032003900494059533
:102E3000402006900790010108910990042102A802
:102E4000FEF7AEFF002800D0FEE71DB030BD000049
:102E5000184802582C0400582048016841F47001B9
:102E600001601F49086840F0010008601C4A00200A
:102E7000103210600A681B4B1A400A60184A183258
:102E80001060121D1060121D1060154A283210606B
:102E9000121D1060121D1060121D1060121D1060B6
:102EA000121D1060121D1060121D10600A6822F4BD
:102EB00080220A600A49603108600B4800686FF39D
:102EC0000F00B0F1005F02D20849012008604FF006
:102ED00000600249803908607047000088ED00E01A
:102EE000004402587FEDF6EA0010005C08810051B2
:102EF00090F82810C90706D001684A68C36A22F40E
:102F000000321A434A6090F82810890706D50168F4
:102F10004A68036B22F480321A434A6090F8281002
:102F2000490706D501684A68436B22F480221A4398
:102F30004A6090F82810090706D501684A68836B33
:102F400022F400421A434A6090F82810C90606D5B8
:102F500001688A68C36B22F480521A438A6090F831
:102F60002810890606D501688A68036C22F400528D
:102F70001A438A6090F82810490611D501684A68FA
:102F8000436C22F480121A434A60416CB1F5801FF1
:102F900006D101684A68836C22F4C0021A434A6071
:102FA00090F82810090606D501684A68C06C22F41A
:102FB000002202434A607047F8B504460026C4F870
:102FC0008860FDF7A3FF0746206800686FF07E4524
:102FD00000070AD500223B464FF400112046009519
:102FE00001F0BAFA08B10320F8BD20680068400774
:102FF0000AD500223B464FF480012046009501F09F
:10300000ABFA08B10320F8BD20207C346060A060DA
:1030100026700020F8BD00002DE9F04F87B004466F
:103020004FF0000800250020F74B21682669A268B0
:10303000E769324366693E433243666E16430A6867
:10304000F24F3A4032430A6021684A68E66822F447
:10305000405232434A60A16922689A4201D0266AEE
:1030600031439668EA4F3E400E4396602168CA6A33
:10307000666A22F00F023243CA62E64E2168E64ACF
:10308000B14224D1126802F03802182A16D005DCA9
:103090005AB1082A0CD0102A04D10CE0202A10D0F2
:1030A000282A11D04FF0800B2AE14FF0010B27E1C5
:1030B0004FF0040B24E14FF0080B21E14FF0100B0F
:1030C0001EE14FF0200B1BE14FF0400B18E1D34EF7
:1030D000B1421ED1126802F00702062A16D2DFE8BA
:1030E00002F00306090C0F124FF0000B08E14FF03D
:1030F000040B05E14FF0080B02E14FF0100BFFE06D
:103100004FF0200BFCE04FF0400BF9E04FF0800B4C
:10311000F6E0C34EB1421ED1126802F00702062A41
:1031200016D2DFE802F00306090C0F124FF0000B75
:10313000E6E04FF0040BE3E04FF0080BE0E04FF067
:10314000100BDDE04FF0200BDAE04FF0400BD7E042
:103150004FF0800BD4E0B34EB1421ED1126802F0A2
:103160000702062A16D2DFE802F00306090C0F1246
:103170004FF0000BC4E04FF0040BC1E04FF0080B20
:10318000BEE04FF0100BBBE04FF0200BB8E04FF06B
:10319000400BB5E04FF0800BB2E0A34EB1421ED120
:1031A000126802F00702062A16D2DFE802F00306D0
:1031B000090C0F124FF0000BA2E04FF0040B9FE040
:1031C0004FF0080B9CE04FF0100B99E04FF0200BF4
:1031D00096E04FF0400B93E04FF0800B90E0934E61
:1031E000B14224D1126802F03802182A16D005DC48
:1031F0005AB1082A0CD0102A04D10CE0202A10D091
:10320000282A11D04FF0800B7AE04FF0010B77E0C5
:103210004FF0040B74E04FF0080B71E04FF0100B0F
:103220006EE04FF0200B6BE04FF0400B68E0804EFB
:10323000B1421ED1126802F00702062A16D2DFE858
:1032400002F00306090C0F124FF0000B58E04FF08C
:10325000040B55E04FF0080B52E04FF0100B4FE01D
:103260004FF0200B4CE04FF0400B49E04FF0800B4B
:1032700046E0704EB1421ED1126802F00702062AE3
:1032800016D2DFE802F00306090C0F124FF0000B14
:1032900036E04FF0040B33E04FF0080B30E04FF016
:1032A000100B2DE04FF0200B2AE04FF0400B27E0F1
:1032B0004FF0800B24E0994220D1574A121D12682A
:1032C00002F00702062A16D2DFE802F00306090C14
:1032D0000F124FF0020B13E04FF0040B10E04FF011
:1032E000080B0DE04FF0100B0AE04FF0200B07E049
:1032F0004FF0400B04E04FF0800B01E04FF0800BEB
:10330000DFF834A1002799424FF4807977D1BBF1DF
:10331000100F75D009DCBBF1020F19D0BBF1040FFF
:103320004DD0BBF1080F06D1A1E0BBF1200F68D052
:10333000BBF1400F66D00125002808D0666806EB77
:103340004601814202D8B0EB063F77D90125EEE372
:10335000FDF7C6FE0146606AC8B1012819D00228EF
:1033600019D0032819D0042819D0052819D0062807
:1033700019D0072819D0082819D0092819D00A28E7
:1033800019D00B2819D00120B1FBF0F0D4E70120AF
:10339000FAE70220F8E70420F6E70620F4E7082021
:1033A000F2E70A20F0E70C20EEE71020ECE72020FF
:1033B000EAE74020E8E78020E6E74846E4E704A89B
:1033C000FDF7A0FE0599606AE8B1012839D002280E
:1033D00039D0032839D0042839D0052839D0062817
:1033E00039D0072839D0082839D0092839D00A28F7
:1033F00039D00B2839D00120B1FBF0F09CE7AEE3C7
:103400006DE0DDE011E11AE0000C0058F369FFCF38
:10341000FFF4FF11001001405444025800440040E2
:1034200000480040004C00400050004000140140A3
:1034300000780040007C00400090D0032BE1012088
:10344000DAE70220D8E70420D6E70620D4E70820F0
:10345000D2E70A20D0E70C20CEE71020CCE72020CE
:10346000CAE74020C8E78020C6E74846C4E701A86D
:10347000FDF728FF0299606AC8B1012819D0022817
:1034800019D0032819D0042819D0052819D00628E6
:1034900019D0072819D0082819D0092819D00A28C6
:1034A00019D00B2819D00120B1FBF0F044E701201E
:1034B000FAE70220F8E70420F6E70620F4E7082000
:1034C000F2E70A20F0E70C20EEE71020ECE72020DE
:1034D000EAE74020E8E78020E6E74846E4E7F748E7
:1034E0000168890638D50068C0F3C1002AFA00F1E6
:1034F000606AC8B1012819D0022819D0032819D050
:10350000042819D0052819D0062819D0072819D061
:10351000082819D0092819D00A2819D00B2819D041
:103520000120B1FBF0F007E70120FAE70220F8E7FD
:103530000420F6E70620F4E70820F2E70A20F0E787
:103540000C20EEE71020ECE72020EAE74020E8E737
:103550008020E6E74846E4E7606AC8B1012819D050
:10356000022819D0032819D0042819D0052819D009
:10357000062819D0072819D0082819D0092819D0E9
:103580000A2819D00B2819D00120BAFBF0F0D3E695
:103590000120FAE70220F8E70420F6E70620F4E726
:1035A0000820F2E70A20F0E70C20EEE71020ECE715
:1035B0002020EAE74020E8E78020E6E74846E4E705
:1035C000606AD0B101281AD002281AD003281AD074
:1035D00004281AD005281AD006281AD007281AD08D
:1035E00008281AD009281AD00A281AD00B281AD06D
:1035F0000120B349B1FBF0F09EE60120F9E702207B
:10360000F7E70420F5E70620F3E70820F1E70A20B2
:10361000EFE70C20EDE71020EBE72020E9E7402062
:10362000E7E78020E5E74846E3E7606AD8B101288C
:103630001BD002281BD003281BD004281BD0052830
:103640001BD006281BD007281BD008281BD0092810
:103650001BD00A281BD00B281BD001204FF400419F
:10366000B1FBF0F068E60120F8E70220F6E704205D
:10367000F4E70620F2E70820F0E70A20EEE70C2046
:10368000ECE71020EAE72020E8E74020E6E780208A
:10369000E4E74846E2E7BBF1100F7DD009DCBBF15F
:1036A000020F16D0BBF1040F64D0BBF1080F06D196
:1036B000B8E0BBF1200F70D0BBF1400F6ED00125F8
:1036C0008049A8F54070884269D82068C0F80C800D
:1036D0002DE2FDF705FD0146606A50B301282BD0AD
:1036E00002282CD003282DD004282ED005282FD036
:1036F000062830D0072831D0082832D0092833D006
:103700000A2834D00B2801D04FF0010908460023C5
:103710004A461946FCF740FE62680902030241EA84
:1037200010615008181879410023FCF735FE8046D7
:10373000C6E74FF00109E9E74FF00209E6E74FF06D
:103740000409E3E74FF00609E0E74FF00809DDE779
:103750004FF00A09DAE74FF00C09D7E74FF01009EC
:10376000D4E74FF02009D1E74FF04009CEE74FF002
:103770008009CBE704A8FDF7C5FC0599606A78B31A
:10378000012831D0022832D0032833D0042834D085
:10379000052835D0062803E09CE040E18DE1DCE11E
:1037A00031D0072832D0082833D0092834D00A284D
:1037B00035D00B2801D04FF00109084600234A46B6
:1037C0001946FCF7E9FD62680902030241EA10614B
:1037D0005008181879410023FCF7DEFD80466FE79A
:1037E000FFE74FF00109E8E74FF00209E5E74FF086
:1037F0000409E2E74FF00609DFE74FF00809DCE7CC
:103800004FF00A09D9E74FF00C09D6E74FF010093D
:10381000D3E74FF02009D0E74FF04009CDE74FF054
:103820008009CAE701A8FDF74DFD0299606A50B30F
:1038300001282BD002282CD003282DD004282ED0EC
:1038400005282FD0062830D0072831D0082832D0BC
:10385000092839D00A283AD00B2801D04FF00109A5
:10386000084600234A461946FCF796FD626809029D
:10387000030241EA10615008181879410023FCF74F
:103880008BFD80461CE74FF00109E9E74FF0020984
:10389000E6E74FF00409E3E74FF00609E0E74FF0F1
:1038A0000809DDE74FF00A09DAE74FF00C09D7E71E
:1038B0004FF01009D4E74FF02009D1E70044025837
:1038C00000093D00FFFC0F004FF04009C8E74FF032
:1038D0008009C5E7F7480168890652D50068C0F33A
:1038E000C1002AFA00FA606A50B301282BD00228DE
:1038F0002CD003282DD004282ED005282FD0062820
:1039000030D0072831D0082832D0092833D00A28EF
:1039100034D00B2801D04FF00109504600234A460D
:103920001946FCF739FD0902020241EA10617008EC
:103930001018324679410023FCF72EFD8046BFE681
:103940004FF00109E9E74FF00209E6E74FF00409FB
:10395000E3E74FF00609E0E74FF00809DDE74FF035
:103960000A09DAE74FF00C09D7E74FF01009D4E75E
:103970004FF02009D1E74FF04009CEE74FF0800922
:10398000CBE7606A50B301282BD002282CD0032843
:103990002DD004282ED005282FD0062830D0072877
:1039A00031D0082832D0092833D00A2834D00B2847
:1039B00001D04FF00109504600234A461946FCF752
:1039C000EBFC0902020241EA10617008101832464D
:1039D00079410023FCF7E0FC804671E64FF00109D5
:1039E000E9E74FF00209E6E74FF00409E3E74FF09B
:1039F0000609E0E74FF00809DDE74FF00A09DAE7CA
:103A00004FF00C09D7E74FF01009D4E74FF0200929
:103A1000D1E74FF04009CEE74FF08009CBE7606A6D
:103A200050B301282BD002282CD003282DD00428F5
:103A30002ED005282FD0062830D0072831D00828CE
:103A400032D0092833D00A2834D00B2801D04FF0C7
:103A50000109994800234A461946FCF79DFC0902D2
:103A6000020241EA106170081018324679410023C1
:103A7000FCF792FC804623E64FF00109E9E74FF09E
:103A80000209E6E74FF00409E3E74FF00609E0E733
:103A90004FF00809DDE74FF00A09DAE74FF00C09AB
:103AA000D7E74FF01009D4E74FF02009D1E74FF0E6
:103AB0004009CEE74FF08009CBE7606A58B3012890
:103AC0002CD002282DD003282ED0042830D0052851
:103AD00031D0062832D0072833D0082834D009281E
:103AE00035D00A2836D00B2801D04FF00109002329
:103AF0004A464FF400401946FCF74EFC0902020208
:103B000041EA106170081018324679410023FCF731
:103B100043FC8046D4E54FF00109E8E74FF0020985
:103B2000E5E74FF00409E2E74FF00609DFE797E227
:103B30004FF00809DBE74FF00A09D8E74FF00C090E
:103B4000D5E74FF01009D2E74FF02009CFE74FF04B
:103B50004009CCE74FF08009C9E7012580E2E06920
:103B60004FF400414FF6EF7688426ED1BBF1080F5B
:103B70006CD009DCBBF1000F1ED0BBF1010F66D089
:103B8000BBF1040F09D1B4E0BBF1100F7DD0BBF144
:103B9000200F7BD0BBF1400F79D00125A8F1100098
:103BA000B04275D84FF6F07108EA0100C8F342013F
:103BB00008432168C86053E2FEF73AFA0146606A9A
:103BC00010B3012823D0022824D0032825D00428AC
:103BD00026D0052827D0062828D0072829D008284D
:103BE0002AD009282BD00A282CD00B2801D04FF03E
:103BF0000109B1FBF9F04100606801EB5001B1FB34
:103C0000F0F01FFA80F8C9E74FF00109F1E74FF033
:103C10000209EEE74FF00409EBE74FF00609E8E789
:103C20004FF00809E5E74FF00A09E2E74FF00C0909
:103C3000DFE74FF01009DCE74FF02009D9E74FF03C
:103C40004009D6E74FF08009D3E70AE29BE0FEF790
:103C500001FA0146606A38B3012828D002282DD025
:103C600003282ED004282FD0052830D0062831D0A4
:103C7000072832D0082833D0092834D00A2835D074
:103C80000B2801D04FF0010903E0C6E05AE1A0E1A2
:103C9000E5E1B1FBF9F04100606801EB5001B1FBD7
:103CA000F0F01FFA80F879E74FF00109ECE74FF0E8
:103CB0000209E9E70044025800093D004FF00409F9
:103CC000E2E74FF00609DFE74FF00809DCE74FF0C5
:103CD0000A09D9E74FF00C09D6E74FF01009D3E7EE
:103CE0004FF02009D0E74FF04009CDE74FF08009B1
:103CF000CAE704A8FDF706FA0599606A10B301281F
:103D000023D0022824D0032825D0042826D0052833
:103D100027D0062828D0072829D008282AD0092803
:103D20002BD00A282CD00B2801D04FF00109B1FB71
:103D3000F9F04100606801EB5001B1FBF0F01FFAAF
:103D400080F82BE74FF00109F1E74FF00209EEE7A9
:103D50004FF00409EBE74FF00609E8E74FF00809D8
:103D6000E5E74FF00A09E2E74FF00C09DFE74FF013
:103D70001009DCE74FF02009D9E74FF04009D6E7FA
:103D80004FF08009D3E701A8FDF79CFA0299606A19
:103D900010B3012823D0022824D0032825D00428DA
:103DA00026D0052827D0062828D0072829D008287B
:103DB0002AD009282BD00A282CD00B2801D04FF06C
:103DC0000109B1FBF9F04100606801EB5001B1FB62
:103DD000F0F01FFA80F8E1E64FF00109F1E74FF04B
:103DE0000209EEE74FF00409EBE74FF00609E8E7B8
:103DF0004FF00809E5E74FF00A09E2E74FF00C0938
:103E0000DFE74FF01009DCE74FF02009D9E74FF06A
:103E10004009D6E74FF08009D3E7FE4801688906DC
:103E20004AD50068C0F3C1002AFA00FA606A10B3EC
:103E3000012823D0022824D0032825D0042826D006
:103E4000052827D0062828D0072829D008282AD0D6
:103E500009282BD00A282CD00B2801D04FF00109BB
:103E6000BAFBF9F04100606801EB5001B1FBF0F0E2
:103E70001FFA80F892E64FF00109F1E74FF00209CE
:103E8000EEE74FF00409EBE74FF00609E8E74FF0E3
:103E90000809E5E74FF00A09E2E74FF00C09DFE710
:103EA0004FF01009DCE74FF02009D9E74FF0400947
:103EB000D6E74FF08009D3E7606A10B3012823D01A
:103EC000022824D0032825D0042826D0052827D06E
:103ED000062828D0072829D008282AD009282BD03E
:103EE0000A282CD00B2801D04FF00109BAFBF9F0B9
:103EF0004100606801EB5001B1FBF0F01FFA80F85F
:103F00004CE64FF00109F1E74FF00209EEE74FF000
:103F10000409EBE74FF00609E8E74FF00809E5E789
:103F20004FF00A09E2E74FF00C09DFE74FF0100904
:103F3000DCE74FF02009D9E74FF04009D6E74FF012
:103F40008009D3E7606A18B3012824D0022825D05D
:103F5000032826D0042827D0052828D0062829D0D1
:103F600007282AD008282BD009282CD00A282DD0A1
:103F70000B2801D04FF00109A748B0FBF9F0410030
:103F8000606801EB5001B1FBF0F01FFA80F805E624
:103F90004FF00109F0E74FF00209EDE74FF0040997
:103FA000EAE74FF00609E7E74FF00809E4E74FF0CA
:103FB0000A09E1E74FF00C09DEE74FF01009DBE7F3
:103FC0004FF02009D8E74FF04009D5E74FF08009BE
:103FD000D2E7606A10B3012823D0022824D0032836
:103FE00025D0042826D0052827D0062828D0072841
:103FF00029D008282AD009282BD00A282CD00B2811
:1040000001D04FF00109B1FBF9F04100606801EB0C
:104010005001B1FBF0F01FFA80F8BFE54FF0010945
:10402000F1E74FF00209EEE74FF00409EBE74FF03C
:104030000609E8E74FF00809E5E74FF00A09E2E76B
:104040004FF00C09DFE74FF01009DCE74FF02009D3
:10405000D9E74FF04009D6E74FF08009D3E70125B3
:104060006CE2BBF1080F7DD009DCBBF1000F18D06A
:10407000BBF1010F5DD0BBF1040F09D1A7E0BBF18B
:10408000100F70D0BBF1200F6ED0BBF1400F6CD081
:104090000125A8F11000B04268D82068C0F80C8053
:1040A0004CE2FDF7C5FF0146606A08B3012822D043
:1040B000022823D0032824D0042825D0052826D080
:1040C000062827D0072828D0082829D009282AD050
:1040D0000A282BD00B2801D04FF001096068B1FBF2
:1040E000F9F101EB5001B1FBF0F01FFA80F8D0E7D5
:1040F0004FF00109F2E74FF00209EFE74FF0040932
:10410000ECE74FF00609E9E74FF00809E6E74FF062
:104110000A09E3E74FF00C09E0E74FF01009DDE78B
:104120004FF02009DAE74FF04009D7E74FF0800958
:10413000D4E7FDF78FFF0146606A38B3012828D025
:10414000022829D003282AD004282BD005282CD0D7
:1041500006282DD007282ED008282FD0092830D0A7
:104160000A2804E082E0CAE05CE1A1E1E5E12BD0AD
:104170000B2801D04FF001096068B1FBF9F101EBA8
:104180005001B1FBF0F01FFA80F882E74FF001090F
:10419000F2E74FF00209EFE74FF00409ECE74FF0C8
:1041A0000609E9E74FF00809E6E74FF00A09E3E7F7
:1041B0004FF00C09E0E74FF01009DDE74FF0200960
:1041C000DAE74FF04009D7E74FF08009D4E704A8B9
:1041D000FCF798FF0599606AD8B1012828D0022819
:1041E00029D003282AD004282BD005282CD0062833
:1041F0002DD007282ED008282FD0092830D00A2803
:1042000031D00B2801D04FF001096068B1FBF9F102
:1042100004E00AE00044025800093D0001EB5001AF
:10422000B1FBF0F01FFA80F833E74FF00109ECE73B
:104230004FF00209E9E74FF00409E6E74FF00609FD
:10424000E3E74FF00809E0E74FF00A09DDE74FF038
:104250000C09DAE74FF01009D7E74FF02009D4E74F
:104260004FF04009D1E74FF08009CEE701A8FDF7F4
:1042700029F80299606A08B3012822D0022823D0C5
:10428000032824D0042825D0052826D0062827D0A6
:10429000072828D0082829D009282AD00A282BD076
:1042A0000B2801D04FF001096068B1FBF9F101EB77
:1042B0005001B1FBF0F01FFA80F8EAE64FF0010977
:1042C000F2E74FF00209EFE74FF00409ECE74FF097
:1042D0000609E9E74FF00809E6E74FF00A09E3E7C6
:1042E0004FF00C09E0E74FF01009DDE74FF020092F
:1042F000DAE74FF04009D7E74FF08009D4E7944858
:104300000168890649D50068C0F3C1002AFA00FA9D
:10431000606A08B3012822D0022823D0032824D0C1
:10432000042825D0052826D0062827D0072828D0FD
:10433000082829D009282AD00A282BD00B2801D0F8
:104340004FF001096068BAFBF9F101EB5001B1FBD4
:10435000F0F01FFA80F89CE64FF00109F2E74FF009
:104360000209EFE74FF00409ECE74FF00609E9E72F
:104370004FF00809E6E74FF00A09E3E74FF00C09B0
:10438000E0E74FF01009DDE74FF02009DAE74FF0E2
:104390004009D7E74FF08009D4E7606A08B30128E5
:1043A00022D0022823D0032824D0042825D0052891
:1043B00026D0062827D0072828D0082829D0092861
:1043C0002AD00A282BD00B2801D04FF001096068B1
:1043D000BAFBF9F101EB5001B1FBF0F01FFA80F8E4
:1043E00057E64FF00109F2E74FF00209EFE74FF00F
:1043F0000409ECE74FF00609E9E74FF00809E6E7A2
:104400004FF00A09E3E74FF00C09E0E74FF010091D
:10441000DDE74FF02009DAE74FF04009D7E74FF02A
:104420008009D4E7606A10B3012823D0022824D081
:10443000032825D0042826D0052827D0062828D0F0
:10444000072829D008282AD009282BD00A282CD0C0
:104450000B2801D04FF001093E48B0FBF9F160682C
:1044600001EB5001B1FBF0F01FFA80F811E64FF0BC
:104470000109F1E74FF00209EEE74FF00409EBE71D
:104480004FF00609E8E74FF00809E5E74FF00A09A1
:10449000E2E74FF00C09DFE74FF01009DCE74FF0DF
:1044A0002009D9E74FF04009D6E74FF08009D3E75C
:1044B000606A08B3012822D0022823D0032824D020
:1044C000042825D0052826D0062827D0072828D05C
:1044D000082829D009282AD00A282BD00B2801D057
:1044E0004FF001096068B1FBF9F101EB5001B1FB3C
:1044F000F0F01FFA80F8CCE54FF00109F2E74FF039
:104500000209EFE74FF00409ECE74FF00609E9E78D
:104510004FF00809E6E74FF00A09E3E74FF00C090E
:10452000E0E74FF01009DDE74FF02009DAE74FF040
:104530004009D7E74FF08009D4E70125012068340E
:10454000608020806760A76007B02846BDE8F08FD4
:104550000044025800093D002DE9F04704460E468C
:1045600017469846089D4FF0000A4FF020093BE09F
:10457000681C39D0FCF7CAFCA0EB0800A84221D87F
:1045800005B32068016849072ED5C069C0430005FE
:104590002AD421684FF4006008622068016821F481
:1045A000D07101602068816821F001018160C4F848
:1045B0008090C4F88490C4F8889084F87CA003208C
:1045C000BDE8F0872068016821F4D071016020689F
:1045D000816821F001018160C4F88090C4F8849062
:1045E00084F87CA00320EBE72068C06936EA00006D
:1045F00004D00020B842BBD00020E1E70120F9E759
:10460000FEE7000070B5054600244FF47A760548B1
:10461000291933460122FEF720F9641C285D002881
:10462000F5D170BDB00200240FB4054B10B503A93D
:10463000044A029800F00AF910BC5DF814FB00006F
:1046400049700008180000240907090E002804DB3F
:1046500000F1E02080F80014704700F00F0000F136
:10466000E02080F8141D70470907090E002804DBBC
:1046700000F1E02080F80014704700F00F0000F116
:10468000E02080F8141D70470907090E002804DB9C
:1046900000F1E02080F80014704700F00F0000F1F6
:1046A000E02080F8141D704702E008C8121F08C1FE
:1046B000002AFAD170477047002001E001C1121FA3
:1046C000002AFBD1704700002DE9FF5F82B0002176
:1046D000DDE90430020DDDF840B0034318D044F6A4
:1046E0001050A2F2FF3242431514119801281FD036
:1046F000A5EB0B00401C5FEA000A4FF000064E4F8E
:10470000DFF83891B046504615D5CAF1000413E0E1
:10471000119801244AA3012801D16FEA0B010298E4
:10472000119AC0E90031C0E9024206B0BDE8F09F2D
:10473000CBF10000DFE704460021404A491842EB74
:104740000450CDE9001012E0E00707D032463B46A6
:1047500040464946FBF773FF8046894632463B4652
:1047600010461946FBF76BFF06460F466410002CF7
:10477000EAD1DDE90401DDE90023BAF1000F06DA30
:10478000FBF75DFF42464B46FBF759FF05E0FBF7A1
:10479000C8FF42464B46FBF7C4FF04460E460022C4
:1047A000284BFCF745F803D84FF0FF30014607E0EF
:1047B0000022254B20463146FBF79AFEFCF720F8F5
:1047C000102409E0002C0ADB0A220023FBF7E4FD99
:1047D000039B30321A55641E50EA0102F2D1641C68
:1047E000039AC4F111031444119A012A03D001223F
:1047F00008430DD10AE0084304D000204FF0110B0C
:10480000119072E7A3EB0B056D1E0DE05B4504DD17
:104810004FF0000205F1010504E003DA4FF0000259
:10482000A5F10105002AECD002981199C0E90231E6
:10483000C0E9004579E70000000014400000F03FA7
:10484000300000000000F0430000E03F2DE9FF4F82
:1048500095B09A46884606460025EEE1252877D190
:1048600000242746F94A0121039400E0044316F886
:10487000013F203B01FA03F01042F7D130782A289B
:1048800011D06FF02F033078A0F13002092A16D82A
:10489000039A44F0020402EB820203EB420210444A
:1048A000761C0390EFE758F8042B0392002A03DAF2
:1048B000504244F40054039044F00204761C3078D3
:1048C0002E2816D116F8010F44F004042A280DD022
:1048D0006FF02F023078A0F13003092B09D807EBD5
:1048E000870302EB4303C718761CF3E758F8047BF1
:1048F000761C30786C280FD006DC4C2817D068283E
:104900000DD06A2814D104E0742810D07A280FD171
:104910000DE044F400140AE044F4801401E044F48F
:1049200040147278824202D104F58014761C761C01
:10493000307866280BD013DC582877D009DC0028A3
:1049400075D04528F6D04628F4D047281AD193E1EF
:1049500018E0632835D0642879D0652812D18BE11E
:10496000702873D008DC6728F1D069286FD06E28D2
:104970000DD06F2806D1ACE073282CD0752874D0E8
:10498000782853D05246179990476D1C54E1C4F3D0
:104990000250022809D003280DD0D8F800100428AE
:1049A0000DD00D6008F1040846E1D8F80010EA17B0
:1049B000C1E90052F6E7D8F800100D80F2E70D705B
:1049C000F0E718F8041B8DF8001000208DF80100A6
:1049D000EB46012003E058F804BB4FF0FF306107BD
:1049E0004FF0000102D40DE009F101018946B942FE
:1049F0000FDA8145F8DB1BF809100029F4D108E033
:104A000009F1010189468142FADB1BF809100029EE
:104A1000F6D103985346A0EB090721463846179A6A
:104A200000F080FA284400EB090507E044E008E1C3
:104A30000DE01BF8010B524617999047B9F1010997
:104A4000F7D2534621463846179AF2E039E00A2158
:104A5000C4F302524FF0000B0091022A06D058F81E
:104A6000040BC117032A09D00AE023E008F107006C
:104A700020F00702F2E80201904605E000B2C117FB
:104A8000042A01D140B2C117002906DA0A460021E2
:104A9000404261EB02012D2202E0220504D52B22C7
:104AA0008DF80420012203E0E20701D02022F7E77D
:104AB000914657E00A2100E010214FF0000B0091D1
:104AC0000BE010214FF0000B44F004040827009184
:104AD00003E008204FF0000B0090C4F30252022ABA
:104AE00005D058F8040B0021032A08D008E008F18B
:104AF000070020F00702F2E80201904603E080B2CE
:104B0000042A00D1C0B24FF0000922072AD532781A
:104B1000702A07D0DDF800C08CF0100C5CEA0B0C9A
:104B200005D00EE040228DF80420012208E050EA72
:104B3000010306D030238DF804308DF805200222C1
:104B40009146009B83F0080353EA0B030AD150EA15
:104B5000010201D1620705D530228DF804204FF003
:104B600001097F1E3278582A04D039A20C920CAA6F
:104B700002920BE03BA2F9E75B46009AFBF70CFCC4
:104B80000C9B9B5C029A521E0292137050EA010227
:104B9000F2D1029804A9081A00F1200B600702D58F
:104BA00024F4803400E001275F4502DDA7EB0B0011
:104BB00000E0002000EB0B01009003984944401AEC
:104BC0000390E00306D453462146179A039800F059
:104BD000A9F90544002706E001A85246C05D1799CF
:104BE00090476D1C7F1C4F45F6DBE0030CD5534608
:104BF0002146179A039800F095F9054404E0302007
:104C00005246179990476D1C0099481E0090002944
:104C1000F5DC08E00298029952460078491C02919E
:104C2000179990476D1CBBF10001ABF1010BF1DC52
:104C30005BE100F065F90544761C307800287FF4CC
:104C40000DAE19B02846BDE8F08F0000092801001C
:104C500030313233343536373839616263646566F2
:104C600000000000303132333435363738394142B4
:104C70004344454600000000600700D4062708F1C1
:104C8000070020F00700F0E80223804603F0004C04
:104C90005FEA0C0001D097A009E0200501D596A09D
:104CA00005E0E00701D095A001E0AFF24C001390C1
:104CB000307823F0004365280CD006DC452809D065
:104CC00046281DD047287FD13BE0662818D06728AA
:104CD0007AD136E00021112F01DB112000E0781C91
:104CE000CDE9000104A90CA8FFF7EEFCDDE90D01F8
:104CF0000C9A4FF0000B07F10109109200914EE061
:104D00004FF000400097CDE9011004A90CA8FFF76F
:104D1000DBFCDDE90D020C9B0F994FF0000B914677
:104D20001093009211B9791C00EB0109B7EB09004F
:104D300003D4C0F1FF3B07F10109A9EB0700019083
:104D400042E0012F00DA01270021112F01DD11209F
:104D500000E03846CDE9000104A90CA8FFF7B4FC37
:104D6000DDE90D010C9A00914FF0000BB94610924D
:104D700021070FD4009A4A4503DA914601E0A9F1D0
:104D80000109B9F1010F05DD109AA9F10101515C8A
:104D90003029F4D0B84202DA10F1040F03DA01210D
:104DA000CDE9011010E0002803DC8344A9EB0001E9
:104DB00002E0411C494500DD8946A0EB0B00401C88
:104DC00001904FF000400290200705D4019848451B
:104DD00002DB4FF0FF30019000208DF84B0002986D
:104DE0000DF14B07B0F1004F25D002200C902B2085
:104DF0000D90029800280CDA404202902D200D9070
:104E000007E00A210298FBF73EFB3031029007F8D9
:104E1000011D0C99481E0C900029F2DC0298002814
:104E2000EFD1791E0D980870307800F0200040F026
:104E3000450007F8020D11A8C01BC01D0290139871
:104E4000007800B1012000EB0901019801EBE0714D
:104E5000029801440398401A401E0390E00306D4D0
:104E600053462146179A039800F05CF805441398BE
:104E7000007818B15246179990476D1CE00323D56E
:104E800053462146179A039800F04CF805441BE05E
:104E9000BBF1000F07DB0098584504DD1098179907
:104EA00010F80B0001E01799302052469047019806
:104EB0000BF1010B401E05F10105019004D12E20DC
:104EC0005246179990476D1CB9F10001A9F10109EB
:104ED000DEDC05E017F8010B5246179990476D1C70
:104EE0000299481E02900029F4DC53462146179A85
:104EF00003989EE62D0000002B000000200000001B
:104F00002DE9F041044600251E461746880404D4C6
:104F100005E039462020B0476D1C641EF9D52846AF
:104F2000BDE8F0812DE9F041044600251E4690467B
:104F3000C80301D5302700E02027880404D505E008
:104F400041463846B0476D1C641EF9D52846BDE879
:104F5000F08100002DE9F04106460F460024DFF8FD
:104F6000648007F03FFA04EB840558F8251019B95E
:104F700008EB8501497C41B107F063FA641C122CEF
:104F8000EFDB4FF0FF30BDE8F08104EB840148F81F
:104F9000216007F056FA08EB85000022426002818A
:104FA000428101233178B3EB111F04D10FB10121EC
:104FB00002E0002100E001218181C28102742046CB
:104FC000E1E70000B408012410B508A0FFF72CFBAE
:104FD0000DA0FFF729FB40F2DC500AF089FEFBF739
:104FE00011FDBDE8104000F035B900005B626F6F45
:104FF000745D206170705F6D61696E20656E7465AF
:105000007265640D0A0000005B626F6F745D20774B
:10501000616974696E6720313530306D7320666F59
:10502000722041503631383120636F6C64207374C4
:105030006172740D0A0000008AB057484FF49271F3
:10504000FBF702FA54480126068141F27C58F7200A
:105050001F23CDE90008A822C02150A0FFF7E4FAE1
:1050600059480290002505AF4FF47A7900220121BA
:10507000022005F02BF90446200006D553A0FFF7C7
:10508000D3FA48460AF034FEF0E7069507950895EE
:10509000099502208DF81900404604F0BDF8ADF8DE
:1050A0001A00029807904FA0FFF7BEFA1022204680
:1050B00006A904F065F848B151A0FFF7B5FA2046FB
:1050C00004F030F848460AF013FECFE751A0FFF78E
:1050D000ABFA03F059FF204603F09EFF30B12046A3
:1050E00004F020F848460AF003FEBFE7FBF70EFF86
:1050F0008246204603F0B2FF30B1204604F012F899
:1051000048460AF0F5FDB1E7FBF700FF14225146CF
:1051100003F048FE30B1FBF7F9FE8246204603F06B
:105120009DFF68BB0595122C0AD2E01704F0070218
:1051300004EB5070C01006FA02F2395C1143395486
:10514000039544F620600490002303A81A4605A99D
:105150000090601C04F00EFE002812DD122CD3D249
:10516000E01704F0070104EB5070C01006FA01F1DB
:10517000385C0842C8D0204603F0E0FE0028C3D0C7
:1051800000E0C1DA29A0FFF74FFA204603F0CAFF7A
:1051900048460AF0ADFD69E7840300244C454432DB
:1051A000204150363138312062726964676520745D
:1051B00061726765742025642E25642E25642E2572
:1051C000643A25640D0A0000C0A81FF7736F636B73
:1051D000657420637265617465206661696C6564DD
:1051E0000D0A0000636F6E6E656374696E672074EC
:1051F0006F207365727665722E2E2E0D0A000000E8
:10520000636F6E6E656374206661696C65640D0A18
:1052100000000000636F6E6E656374656420746FD8
:10522000207365727665720D0A00000073657276F0
:10523000657220646973636F6E6E65637465642C58
:10524000207265636F6E6E656374696E672E2E2EB5
:105250000D0A000008B50420034900220302009053
:1052600002A007F0ADF908BD39500008636C69650C
:105270006E74000070B5D2430024094D0CE0035D4C
:105280005A400023D60702D085EA520200E05208B5
:105290005B1C082BF6DB641C8C42F0DBD04370BD3A
:1052A0002083B8ED10B50446606880472068224628
:1052B000BDE81040014907F095B90000A55200086B
:1052C0002DE9FC410546002D67D06C6A002C64D0A6
:1052D00000272784636B4FF480384FF03C024FF077
:1052E000010C581C4FF6FF760AD01E33B3FBF2F0C8
:1052F000404500D3304683B263840BB9A4F822C082
:10530000A36B581C0CD01E33B3FBF2F1414500D304
:1053100031468BB223830BB9A4F818C0208BA0832D
:10532000E36B581C0CD01E33B3FBF2F2424500D3A2
:10533000324693B263830BB9A4F81AC0608BE08342
:10534000208B638B984201D303B12783E07A10B19D
:10535000E06A01900DE094F828307F2B02D8FF20FE
:10536000019006E0C02B03D36FF07F40019000E076
:105370000196206B009028B9A06A0199084040F07E
:10538000807000900A21204600F052FE01AA6B4670
:1053900004F12801284605F0EDFBBDE8FC81000082
:1053A00010B51748046828E0616A09B3487AF8B173
:1053B000488C68B1088C401C80B208844A8C9042AA
:1053C00006D1204600F0FEFC204600F0D1F813E0A4
:1053D000C88B18B1421ECA83012806D0888B38B109
:1053E000421E8A83012804D006E0204600F0A2FE77
:1053F00002E0204600F089FE2468002CD4D110BDC4
:10540000000100242DE9F04105460C461646002D0A
:105410000BD074B100224FF49A71104605F02AFCAB
:10542000E06048B1032E0DD109E06FF00F00BDE838
:10543000F0816FF00500FAE74FF0FF30F7E7607A90
:10544000032807D1A07A3A4F10B907F06BF8B8607B
:10545000B8682060E068406820610121017020691F
:105460004170216995F83600887000272069C7705F
:10547000206803F0C5FE2169486020690781206922
:1054800047812069C760082E0AD0042E08D0072E55
:1054900006D0032E07D1607A052801D0042802D156
:1054A00021696868C86020690761206947612069CF
:1054B0008761002095F83610814205D9062803D26D
:1054C000291891F8371000E00021236900F11C022F
:1054D0009954401C80B21028ECD30020226900F1BE
:1054E0002C015754401C80B24028F7D30020226979
:1054F00000F16C015754401C80B28028F7D3216919
:105500000C48C1F8EC00A7820020226900F1F001EC
:105510005054401C80B24428F7D301222046352144
:1055200000F048F93146204600F052F900207EE7AD
:10553000680100246382536310B5064C2078401E36
:10554000C0B22070002804D1E0680AF05FF90020A2
:10555000E06010BD6801002410B50446002C06D0A0
:10556000E06808B105F00CFD0020E060206110BD8E
:105570002DE9FC418046D8F824400020A062062195
:10558000204600F055FD012221464046FFF73AFF34
:10559000074638002FD102222046392100F00AF9AF
:1055A000B8F83410204600F057F90422204637217D
:1055B00000F000F900251F4E2046715D00F008F94B
:1055C0006D1CEDB2042DF7D3204600F054F9A08AEB
:1055D000F03081B2E06805F09EFD17484323174A7A
:1055E000CDE900801348E168401EC0680AF078F9F0
:1055F0002046FFF7B1FFA07AFF2801D2401CA0721D
:10560000A17A062902D20120884000E03C2000EB6C
:105610004001C1EBC0104FF6FF7101EAC00000F27B
:10562000F3104FF4FA71B0FBF1F0E0823846BDE8B8
:10563000FC810000690100241C3A0108203A01089D
:1056400070B50B48046800250EE0616A59B1C88A3C
:10565000012803D9A0F10100C88204E003D1CD8262
:10566000204600F07EFD2468002CEED170BD0000C5
:1056700000010024F8B5446A0021E1622163214E53
:10568000A6F12805F078002801D0E8686063307939
:1056900010B12869A06302E0606B4008A0637079D4
:1056A00010B16869E06304E0606BC0EBC000C00843
:1056B000E06360680069A062B07930B1A86903F066
:1056C0009FFDE0620120E07200E0E172F07918B124
:1056D000E86903F095FD206300240CE004F1080064
:1056E00055F8200003F08CFD00906946204600F03C
:1056F000ABFE641CE4B2022C03D23019007A0028FD
:10570000ECD1F8BD6889012410B50446606A0C210B
:1057100000F08EFC054B20461A46114605F02AFA89
:105720002046BDE81040FFF723BF00001C3A0108E7
:1057300070B505466C6A0948807800280DD0074886
:105740002838806803F05CFD606260680069A062D0
:105750002846BDE8704000F0E9BB70BD68890124AF
:1057600010B5114C2078002815D10AF015F8E0602A
:10577000B0B1017A41F0200101720C49442209F0D4
:105780009DFE0A494322E06809F0E0FE0849002234
:10579000E0680AF037F82078401C2070002010BD27
:1057A0004FF0FF3010BD0000680100241C3A0108D2
:1057B000D55C000810B5838A5C1C84820469F033D0
:1057C000E154818A4B1C83820069F031425410BD40
:1057D000828A531C83820069F0328154704770B50D
:1057E00006460C46206B002818D0FAF738FE002831
:1057F00014D0246BB18AC1F14105A84200D20546FC
:1058000030460C21EAB2FFF7D5FF04E014F8011B83
:105810003046FFF7DDFF6D1E681CF7D170BD10B577
:10582000828A0C0E531C83820369F0329C54828A54
:105830000C0C531C83820369F0329C54828A0C0A3C
:10584000531C83820369F0329C54828A531C8382E6
:105850000069F032815410BD10B5828A0C0A531CC5
:1058600083820369F0329C54828A531C83820069CC
:10587000F032815410BD002814D0818AFF234A1CC5
:1058800082820269F0315354002304E04A1C828270
:105890000269F0315354818A442901D38A0701D027
:1058A0004429F3D3704700002DE9F34F85B0044637
:1058B0000021049103910A21A148FAF7C5FD069938
:1058C00049892C2904D26FF0010007B0BDE8F08FA0
:1058D0000699496861604FF0F0080698B0F80890A2
:1058E000069E08E0A8EB00011FFA81F8A9EB000072
:1058F0001FFA80F9366816B170894045F2D91EB199
:105900004746D6F804B0E3E06FF00100DDE74FF062
:10591000FF34B81C1FFA80FA7289781C824203D9BE
:105920000BEB0700407805E0306810B14068007864
:1059300000E00020054634294DD00BDC032928D097
:1059400003DCD1B101290DD11CE0062929D033296E
:1059500008D137E035294BD0362950D03A2955D0D7
:105960003B295AD000253844801C87B27DB30020E3
:1059700002907348005D58B398E0002005467F1EF2
:10598000BFB2F0E7042802D06FF005009DE70624BF
:10599000E9E70425042802D26FF0050095E7072403
:1059A000E1E7810702D06FF005008EE7082801D2F9
:1059B000054600E00825A84202D26FF0050084E702
:1059C0000824D0E7042804D06FF005007DE76DE0DF
:1059D0002AE00324C7E7012802D06FF0050074E72E
:1059E000B8F1F00F02D06FF005006EE70024BAE7BF
:1059F000012802D06FF0050067E70124B3E704280F
:105A000002D06FF0050060E70224ACE7042802D062
:105A10006FF0050059E70424A5E7042802D06FF0D1
:105A2000050052E705249EE7042D01D2284600E038
:105A300004200190019A02A95346304605F06AFA03
:105A400001460198814202D06FF001003DE7042D2C
:105A500016D9A80702D06FF0050036E738490120B3
:105A60000855029803F0CCFB3549283941F8240049
:105A70002D1FEDB20AF1040A1FFA8AFA641C78E7B6
:105A8000042D04D0012D07D06FF005001DE702980A
:105A900003F0B6FB029002E09DF80800029001219D
:105AA000274801552838029940F824107089B842D7
:105AB0000ED8391A8FB2A9EB00001FFA80F94F45B2
:105AC0000ED2B9F1000F0BD03668C6B1D6F804B0CB
:105AD00036B14F4504D21BF80710FF297FF417AFEA
